{
  "abi": [
    {
      "inputs": [
        {
          "internalType": "bytes",
          "name": "inputData",
          "type": "bytes"
        },
        {
          "internalType": "uint256",
          "name": "newAmount",
          "type": "uint256"
        }
      ],
      "name": "getScaledInputData",
      "outputs": [
        {
          "internalType": "bytes",
          "name": "",
          "type": "bytes"
        }
      ],
      "stateMutability": "pure",
      "type": "function"
    }
  ],
  "bytecode": {
    "object": "0x608060405234801561001057600080fd5b5061280e806100206000396000f3fe608060405234801561001057600080fd5b506004361061002b5760003560e01c8063e4da6f2e14610030575b600080fd5b61004361003e366004610f5d565b610059565b6040516100509190611030565b60405180910390f35b6060600061006a6004828688611043565b6100739161106d565b905060006100826004866110b3565b6001600160401b03811115610099576100996110ca565b6040519080825280601f01601f1916602001820160405280156100c3576020820181803683370190505b50905060005b6100d46004876110b3565b81101561013a5786866100e88360046110e0565b8181106100f7576100f76110f8565b9050013560f81c60f81b828281518110610113576101136110f8565b60200101906001600160f81b031916908160001a9053506101338161110e565b90506100c9565b506001600160e01b0319821663e21fd0e960e01b14156101ec5760008180602001905181019061016a919061152c565b6060810151604082015161012082015192935061018d92889060201615156102f2565b8260600183604001829052829052505082816040516024016101af9190611768565b60408051601f198184030181529190526020810180516001600160e01b03166001600160e01b03199093169290921790915293506102eb92505050565b6001600160e01b03198216638af033fb60e01b1415610292576000806000808480602001905181019061021f91906117e9565b935093509350935061023483838a60016102f2565b60405191945092508690610252908690869086908690602401611884565b60408051601f198184030181529190526020810180516001600160e01b03166001600160e01b03199093169290921790915296506102eb95505050505050565b60405162461bcd60e51b8152602060048201526024808201527f496e7075745363616c696e6748656c7065723a20496e76616c69642073656c6560448201526331ba37b960e11b60648201526084015b60405180910390fd5b9392505050565b6102fa610ee8565b60e0850151606090848114156103165786869250925050610358565b831561033c57610327878287610361565b610332878388610421565b9250925050610358565b610347878287610361565b6103528783886104ee565b92509250505b94509492505050565b610369610ee8565b828285610100015161037b91906118d9565b61038591906118f8565b610100850181905261039a5760016101008501525b60e0840182905260005b846040015151811015610418578383866060015183815181106103c9576103c96110f8565b60200260200101516103db91906118d9565b6103e591906118f8565b856060015182815181106103fb576103fb6110f8565b6020908102919091010152806104108161110e565b9150506103a4565b50929392505050565b60606000848060200190518101906104399190611999565b905060005b8151518110156104af57848483602001518381518110610460576104606110f8565b602002602001015161047291906118d9565b61047c91906118f8565b82602001518281518110610492576104926110f8565b6020908102919091010152806104a78161110e565b91505061043e565b506104bf816080015185856108e5565b60808201526040516104d5908290602001611a60565b6040516020818303038152906040529150509392505050565b60606000848060200190518101906105069190611c99565b90508383826060015161051991906118d9565b61052391906118f8565b606082015260c08101516105389085856108e5565b60c082015260005b8151518110156108d357600082600001518281518110610562576105626110f8565b602002602001015160008151811061057c5761057c6110f8565b602090810291909101810151908101519091506001600160e01b0319811663341e585d60e21b14156105bc5781516105b59088886109a2565b82526108be565b6001600160e01b031981166246991160e71b14156105e15781516105b59088886109ed565b6001600160e01b0319811663cbf622d360e01b14156106075781516105b5908888610a38565b6001600160e01b03198116634944c81560e01b141561062d5781516105b59088886109a2565b6001600160e01b03198116639e8aa93560e01b14156106535781516105b5908888610a83565b6001600160e01b0319811663773b632160e11b14156106845760405162461bcd60e51b81526004016102e290611d70565b6001600160e01b0319811663a5d0728f60e01b14156106aa5781516105b5908888610b36565b6001600160e01b03198116638a5da90f60e01b14156106d05781516105b5908888610bcb565b6001600160e01b0319811663a067e24b60e01b14156106f65781516105b59088886109a2565b6001600160e01b0319811663ad2261ff60e01b141561071c5781516105b5908888610c16565b6001600160e01b03198116639f05446360e01b14156107425781516105b5908888610cab565b6001600160e01b03198116637a6f431760e11b14156107735760405162461bcd60e51b81526004016102e290611d70565b6001600160e01b03198116633b5490e160e01b14156107995781516105b59088886109a2565b6001600160e01b03198116633a32adab60e01b14156107ca5760405162461bcd60e51b81526004016102e290611d70565b6001600160e01b0319811663583e56d760e01b14156107f05781516105b5908888610d5a565b6001600160e01b031981166378c3ad1f60e01b14156108165781516105b5908888610dc6565b6001600160e01b0319811663efd9d5c360e01b141561083c5781516105b59088886109a2565b6001600160e01b031981166317fc370b60e31b14156108625781516105b5908888610e51565b60405162461bcd60e51b815260206004820152602b60248201527f4167677265676174696f6e4578656375746f723a204465782074797065206e6f60448201526a1d081cdd5c1c1bdc9d195960aa1b60648201526084016102e2565b505080806108cb9061110e565b915050610540565b50806040516020016104d59190611dba565b6060602084511115610956576000848060200190518101906109079190611f05565b90508383826020015161091a91906118d9565b61092491906118f8565b6020828101918252604080519351918401919091529051828201528051808303820181526060909201905290506102eb565b8351602014156102eb576000848060200190518101906109769190611f53565b90508361098384836118d9565b61098d91906118f8565b9050806040516020016104d591815260200190565b60606000848060200190518101906109ba9190611f80565b9050838382608001516109cd91906118d9565b6109d791906118f8565b60808201526040516104d5908290602001612028565b6060600084806020019051810190610a0591906120df565b905083838260a00151610a1891906118d9565b610a2291906118f8565b60a08201526040516104d5908290602001612187565b6060600084806020019051810190610a509190612259565b905083838260a00151610a6391906118d9565b610a6d91906118f8565b60a08201526040516104d59082906020016122f6565b6060600084806020019051810190610a9b919061238a565b905083838260800151610aae91906118d9565b610ab891906118f8565b60808201526040516104d590829060200160006101008201905060018060a01b038084511683528060208501511660208401528060408501511660408401528060608501511660608401526080840151608084015260a084015160a08401528060c08501511660c08401525060e0830151151560e083015292915050565b6060600084806020019051810190610b4e9190612424565b905083838260800151610b6191906118d9565b610b6b91906118f8565b60808201526040516104d590829060200181516001600160a01b03908116825260208084015190830152604080840151821690830152606080840151909116908201526080808301519082015260a0918201519181019190915260c00190565b6060600084806020019051810190610be39190612498565b905083838260800151610bf691906118d9565b610c0091906118f8565b60808201526040516104d5908290602001612522565b6060600084806020019051810190610c2e919061259f565b905083838260600151610c4191906118d9565b610c4b91906118f8565b60608201526040516104d590829060200181516001600160a01b039081168252602080840151821690830152604080840151821690830152606080840151908301526080808401519083015260a092830151169181019190915260c00190565b6060600084806020019051810190610cc3919061261c565b905083838260800151610cd691906118d9565b610ce091906118f8565b60808201526040516104d590829060200160006101008201905060018060a01b0380845116835280602085015116602084015280604085015116604084015250606083015160608301526080830151608083015260a083015160a083015260c083015160c083015260e0830151151560e083015292915050565b6060600084806020019051810190610d72919061269c565b905083838260200151610d8591906118d9565b610d8f91906118f8565b60208281019182526040805184516001600160a01b03169281019290925291518183015290820151151560608201526080016104d5565b6060600084806020019051810190610dde9190612702565b905083838260600151610df191906118d9565b610dfb91906118f8565b60608201526040516104d590829060200181516001600160a01b03908116825260208084015182169083015260408084015182169083015260608084015190830152608092830151169181019190915260a00190565b6060600084806020019051810190610e699190612790565b905083838260800151610e7c91906118d9565b610e8691906118f8565b60808201526040516104d590829060200181516001600160a01b039081168252602080840151821690830152604080840151821690830152606080840151909116908201526080808301519082015260a0918201519181019190915260c00190565b60405180610160016040528060006001600160a01b0316815260200160006001600160a01b031681526020016060815260200160608152602001606081526020016060815260200160006001600160a01b03168152602001600081526020016000815260200160008152602001606081525090565b600080600060408486031215610f7257600080fd5b83356001600160401b0380821115610f8957600080fd5b818601915086601f830112610f9d57600080fd5b813581811115610fac57600080fd5b876020828501011115610fbe57600080fd5b6020928301989097509590910135949350505050565b60005b83811015610fef578181015183820152602001610fd7565b83811115610ffe576000848401525b50505050565b6000815180845261101c816020860160208601610fd4565b601f01601f19169290920160200192915050565b6020815260006102eb6020830184611004565b6000808585111561105357600080fd5b8386111561106057600080fd5b5050820193919092039150565b6001600160e01b031981358181169160048510156110955780818660040360031b1b83161692505b505092915050565b634e487b7160e01b600052601160045260246000fd5b6000828210156110c5576110c561109d565b500390565b634e487b7160e01b600052604160045260246000fd5b600082198211156110f3576110f361109d565b500190565b634e487b7160e01b600052603260045260246000fd5b60006000198214156111225761112261109d565b5060010190565b60405161016081016001600160401b038111828210171561114c5761114c6110ca565b60405290565b60405160a081016001600160401b038111828210171561114c5761114c6110ca565b604080519081016001600160401b038111828210171561114c5761114c6110ca565b60405160e081016001600160401b038111828210171561114c5761114c6110ca565b60405161012081016001600160401b038111828210171561114c5761114c6110ca565b60405161014081016001600160401b038111828210171561114c5761114c6110ca565b60405161010081016001600160401b038111828210171561114c5761114c6110ca565b60405160c081016001600160401b038111828210171561114c5761114c6110ca565b604051601f8201601f191681016001600160401b038111828210171561126b5761126b6110ca565b604052919050565b6001600160a01b038116811461128857600080fd5b50565b805161129681611273565b919050565b600082601f8301126112ac57600080fd5b81516001600160401b038111156112c5576112c56110ca565b6112d8601f8201601f1916602001611243565b8181528460208386010111156112ed57600080fd5b6112fe826020830160208701610fd4565b949350505050565b60006001600160401b0382111561131f5761131f6110ca565b5060051b60200190565b600082601f83011261133a57600080fd5b8151602061134f61134a83611306565b611243565b82815260059290921b8401810191818101908684111561136e57600080fd5b8286015b8481101561139257805161138581611273565b8352918301918301611372565b509695505050505050565b600082601f8301126113ae57600080fd5b815160206113be61134a83611306565b82815260059290921b840181019181810190868411156113dd57600080fd5b8286015b8481101561139257805183529183019183016113e1565b6000610160828403121561140b57600080fd5b611413611129565b905061141e8261128b565b815261142c6020830161128b565b602082015260408201516001600160401b038082111561144b57600080fd5b61145785838601611329565b6040840152606084015191508082111561147057600080fd5b61147c8583860161139d565b6060840152608084015191508082111561149557600080fd5b6114a185838601611329565b608084015260a08401519150808211156114ba57600080fd5b6114c68583860161139d565b60a08401526114d760c0850161128b565b60c084015260e0848101519084015261010080850151908401526101208085015190840152610140808501519092508181111561151357600080fd5b61151f8682870161129b565b8385015250505092915050565b60006020828403121561153e57600080fd5b81516001600160401b038082111561155557600080fd5b9083019060a0828603121561156957600080fd5b611571611152565b61157a8361128b565b81526115886020840161128b565b602082015260408301518281111561159f57600080fd5b6115ab8782860161129b565b6040830152506060830151828111156115c357600080fd5b6115cf878286016113f8565b6060830152506080830151828111156115e757600080fd5b6115f38782860161129b565b60808301525095945050505050565b600081518084526020808501945080840160005b8381101561163b5781516001600160a01b031687529582019590820190600101611616565b509495945050505050565b600081518084526020808501945080840160005b8381101561163b5781518752958201959082019060010161165a565b80516001600160a01b03168252600061016060208301516116a260208601826001600160a01b03169052565b5060408301518160408601526116ba82860182611602565b915050606083015184820360608601526116d48282611646565b915050608083015184820360808601526116ee8282611602565b91505060a083015184820360a08601526117088282611646565b91505060c083015161172560c08601826001600160a01b03169052565b5060e0838101519085015261010080840151908501526101208084015190850152610140808401518583038287015261175e8382611004565b9695505050505050565b60208152600060018060a01b0380845116602084015280602085015116604084015250604083015160a060608401526117a460c0840182611004565b90506060840151601f19808584030160808601526117c28383611676565b925060808601519150808584030160a0860152506117e08282611004565b95945050505050565b600080600080608085870312156117ff57600080fd5b845161180a81611273565b60208601519094506001600160401b038082111561182757600080fd5b611833888389016113f8565b9450604087015191508082111561184957600080fd5b6118558883890161129b565b9350606087015191508082111561186b57600080fd5b506118788782880161129b565b91505092959194509250565b6001600160a01b03851681526080602082018190526000906118a890830186611676565b82810360408401526118ba8186611004565b905082810360608401526118ce8185611004565b979650505050505050565b60008160001904831182151516156118f3576118f361109d565b500290565b60008261191557634e487b7160e01b600052601260045260246000fd5b500490565b600082601f83011261192b57600080fd5b8151602061193b61134a83611306565b82815260059290921b8401810191818101908684111561195a57600080fd5b8286015b848110156113925780516001600160401b0381111561197d5760008081fd5b61198b8986838b010161129b565b84525091830191830161195e565b6000602082840312156119ab57600080fd5b81516001600160401b03808211156119c257600080fd5b9083019060a082860312156119d657600080fd5b6119de611152565b8251828111156119ed57600080fd5b6119f987828601611329565b825250602083015182811115611a0e57600080fd5b611a1a8782860161139d565b602083015250604083015182811115611a3257600080fd5b611a3e8782860161191a565b604083015250606083015160608201526080830151828111156115e757600080fd5b60006020808352835160a082850152611a7c60c0850182611602565b905081850151601f1980868403016040870152611a998383611646565b60408801518782038301606089015280518083529194508501925084840190600581901b8501860160005b82811015611af05784878303018452611ade828751611004565b95880195938801939150600101611ac4565b5060608a015160808a015260808a01519650838982030160a08a0152611b168188611004565b9a9950505050505050505050565b600082601f830112611b3557600080fd5b8151611b4361134a82611306565b808282526020820191508560208460051b8701011115611b6257600080fd5b602085015b60208460051b870101811015611c8f5780516001600160401b03811115611b8d57600080fd5b8601603f81018813611b9e57600080fd5b6020810151611baf61134a82611306565b808282526020820191508a60408460051b8601011115611bce57600080fd5b604084015b60408460051b860101811015611c795780516001600160401b03811115611bf957600080fd5b60408682018e03603f19011215611c0f57600080fd5b611c17611174565b604082880101516001600160401b03811115611c3257600080fd5b611c438f604083868c01010161129b565b82525090860160600151906001600160e01b031982168214611c6457600080fd5b60208181019290925284529283019201611bd3565b5086525050602093840193919091019050611b67565b5095945050505050565b600060208284031215611cab57600080fd5b81516001600160401b0380821115611cc257600080fd5b9083019060e08286031215611cd657600080fd5b611cde611196565b825182811115611ced57600080fd5b611cf987828601611b24565b825250611d086020840161128b565b6020820152611d196040840161128b565b604082015260608301516060820152611d346080840161128b565b608082015260a083015160a082015260c083015182811115611d5557600080fd5b611d618782860161129b565b60c08301525095945050505050565b6020808252602a908201527f496e7075745363616c696e6748656c7065723a2043616e206e6f74207363616c6040820152690652052465120737761760b41b606082015260800190565b6020808252825160e0838301528051610100840181905260009291600582811b860161012090810193928501929087019186805b83811015611e825789870361011f1901855285518051808952908901908989019080861b8a018b01855b82811015611e6c57601f198c8303018452845160408151818552611e3e82860182611004565b91505063ffffffff60e01b8f830151168f85015280935050508c850194508c84019350600181019050611e18565b5099505050958801955093870193600101611dee565b50505050928601516001600160a01b03811660408701529250611ea29050565b60408501516001600160a01b038116606086015291506060850151608085015260808501519150611ede60a08501836001600160a01b03169052565b60a085015160c085015260c08501519150601f198482030160e08501526117e08183611004565b600060408284031215611f1757600080fd5b604051604081018181106001600160401b0382111715611f3957611f396110ca565b604052825181526020928301519281019290925250919050565b600060208284031215611f6557600080fd5b5051919050565b805163ffffffff8116811461129657600080fd5b60006101208284031215611f9357600080fd5b611f9b6111b8565b611fa48361128b565b8152611fb26020840161128b565b6020820152611fc36040840161128b565b6040820152611fd46060840161128b565b60608201526080830151608082015260a083015160a0820152611ff960c08401611f6c565b60c082015261200a60e08401611f6c565b60e082015261010061201d818501611f6c565b908201529392505050565b81516001600160a01b03908116825260208084015182169083015260408084015182169083015260608084015191821690830152610120820190506080830151608083015260a083015160a083015260c083015161208e60c084018263ffffffff169052565b5060e08301516120a660e084018263ffffffff169052565b506101008381015163ffffffff811684830152611095565b805160ff8116811461129657600080fd5b8051801515811461129657600080fd5b600061014082840312156120f257600080fd5b6120fa6111db565b6121038361128b565b81526121116020840161128b565b60208201526121226040840161128b565b6040820152612133606084016120be565b6060820152612144608084016120be565b608082015260a083015160a082015260c083015160c082015260e083015160e082015261010061217581850161128b565b9082015261012061201d8482016120cf565b81516001600160a01b03168152610140810160208301516121b360208401826001600160a01b03169052565b5060408301516121ce60408401826001600160a01b03169052565b5060608301516121e3606084018260ff169052565b5060808301516121f8608084018260ff169052565b5060a083015160a083015260c083015160c083015260e083015160e083015261010080840151612232828501826001600160a01b03169052565b50506101208381015180151584830152611095565b8051600f81900b811461129657600080fd5b6000610120828403121561226c57600080fd5b6122746111b8565b61227d8361128b565b815261228b6020840161128b565b602082015261229c6040840161128b565b60408201526122ad60608401612247565b60608201526122be60808401612247565b608082015260a083015160a082015260c083015160c08201526122e360e084016120cf565b60e082015261010061201d8185016120cf565b81516001600160a01b039081168252602080840151821690830152604080840151918216908301526101208201905060608301516123396060840182600f0b9052565b50608083015161234e6080840182600f0b9052565b5060a083015160a083015260c083015160c083015260e083015161237660e084018215159052565b506101008381015180151584830152611095565b6000610100828403121561239d57600080fd5b6123a56111fe565b82516123b081611273565b815260208301516123c081611273565b60208201526123d16040840161128b565b60408201526123e26060840161128b565b60608201526080830151608082015260a083015160a082015261240760c0840161128b565b60c082015261241860e084016120cf565b60e08201529392505050565b600060c0828403121561243657600080fd5b61243e611221565b825161244981611273565b815260208381015190820152604083015161246381611273565b6040820152606083015161247681611273565b60608201526080838101519082015260a0928301519281019290925250919050565b600061012082840312156124ab57600080fd5b6124b36111b8565b6124bc8361128b565b81526124ca6020840161128b565b60208201526124db6040840161128b565b60408201526124ec6060840161128b565b60608201526080830151608082015260a083015160a082015261251160c0840161128b565b60c08201526122e360e084016120cf565b81516001600160a01b03908116825260208084015182169083015260408084015182169083015260608084015191821690830152610120820190506080830151608083015260a083015160a083015260c083015161258b60c08401826001600160a01b03169052565b5060e083015161237660e084018215159052565b600060c082840312156125b157600080fd5b6125b9611221565b82516125c481611273565b815260208301516125d481611273565b602082015260408301516125e781611273565b80604083015250606083015160608201526080830151608082015260a083015161261081611273565b60a08201529392505050565b6000610100828403121561262f57600080fd5b6126376111fe565b825161264281611273565b8152602083015161265281611273565b60208201526126636040840161128b565b6040820152606083015160608201526080830151608082015260a083015160a082015260c083015160c082015261241860e084016120cf565b6000606082840312156126ae57600080fd5b604051606081018181106001600160401b03821117156126d0576126d06110ca565b60405282516126de81611273565b8152602083810151908201526126f6604084016120cf565b60408201529392505050565b600060a0828403121561271457600080fd5b60405160a081018181106001600160401b0382111715612736576127366110ca565b604052825161274481611273565b8152602083015161275481611273565b6020820152604083015161276781611273565b604082015260608381015190820152608083015161278481611273565b60808201529392505050565b600060c082840312156127a257600080fd5b6127aa611221565b82516127b581611273565b815260208301516127c581611273565b602082015260408301516124638161127356fea264697066735822122064a19d28d575402fefa9fcd0cf08efe09d97e1e81a504b1a95080dba7bcebf8264736f6c63430008090033",
    "linkReferences": {}
  },
  "methodIdentifiers": {
    "getScaledInputData(bytes,uint256)": "e4da6f2e"
  },
  "id": 20
}