{
  "abi": [
    {
      "inputs": [
        {
          "internalType": "bytes",
          "name": "inputData",
          "type": "bytes"
        },
        {
          "internalType": "uint256",
          "name": "newAmount",
          "type": "uint256"
        }
      ],
      "name": "getScaledInputData",
      "outputs": [
        {
          "internalType": "bytes",
          "name": "",
          "type": "bytes"
        }
      ],
      "stateMutability": "pure",
      "type": "function"
    }
  ],
  "bytecode": {
    "object": "0x608060405234801561001057600080fd5b506126c1806100206000396000f3fe608060405234801561001057600080fd5b506004361061002b5760003560e01c8063e4da6f2e14610030575b600080fd5b61004361003e366004610e77565b610059565b6040516100509190610f4a565b60405180910390f35b6060600061006a6004828688610f5d565b61007391610f87565b90506000610082600486610fcd565b6001600160401b0381111561009957610099610fe4565b6040519080825280601f01601f1916602001820160405280156100c3576020820181803683370190505b50905060005b6100d4600487610fcd565b81101561013a5786866100e8836004610ffa565b8181106100f7576100f7611012565b9050013560f81c60f81b82828151811061011357610113611012565b60200101906001600160f81b031916908160001a90535061013381611028565b90506100c9565b506001600160e01b0319821663e21fd0e960e01b14156101ec5760008180602001905181019061016a9190611446565b6060810151604082015161012082015192935061018d92889060201615156102f2565b8260600183604001829052829052505082816040516024016101af9190611682565b60408051601f198184030181529190526020810180516001600160e01b03166001600160e01b03199093169290921790915293506102eb92505050565b6001600160e01b03198216638af033fb60e01b1415610292576000806000808480602001905181019061021f9190611703565b935093509350935061023483838a60016102f2565b6040519194509250869061025290869086908690869060240161179e565b60408051601f198184030181529190526020810180516001600160e01b03166001600160e01b03199093169290921790915296506102eb95505050505050565b60405162461bcd60e51b8152602060048201526024808201527f496e7075745363616c696e6748656c7065723a20496e76616c69642073656c6560448201526331ba37b960e11b60648201526084015b60405180910390fd5b9392505050565b6102fa610e02565b60e0850151606090848114156103165786869250925050610358565b831561033c57610327878287610361565b610332878388610421565b9250925050610358565b610347878287610361565b6103528783886104da565b92509250505b94509492505050565b610369610e02565b828285610100015161037b91906117f3565b6103859190611812565b610100850181905261039a5760016101008501525b60e0840182905260005b846040015151811015610418578383866060015183815181106103c9576103c9611012565b60200260200101516103db91906117f3565b6103e59190611812565b856060015182815181106103fb576103fb611012565b60209081029190910101528061041081611028565b9150506103a4565b50929392505050565b606060008480602001905181019061043991906118b3565b905060005b8151518110156104af5784848360200151838151811061046057610460611012565b602002602001015161047291906117f3565b61047c9190611812565b8260200151828151811061049257610492611012565b6020908102919091010152806104a781611028565b91505061043e565b50806040516020016104c1919061197a565b6040516020818303038152906040529150509392505050565b60606000848060200190518101906104f29190611bb3565b90508383826060015161050591906117f3565b61050f9190611812565b606082015260005b8151518110156108aa5760008260000151828151811061053957610539611012565b602002602001015160008151811061055357610553611012565b602090810291909101810151908101519091506001600160e01b0319811663341e585d60e21b141561059357815161058c9088886108bc565b8252610895565b6001600160e01b031981166246991160e71b14156105b857815161058c908888610907565b6001600160e01b0319811663cbf622d360e01b14156105de57815161058c908888610952565b6001600160e01b03198116634944c81560e01b141561060457815161058c9088886108bc565b6001600160e01b03198116639e8aa93560e01b141561062a57815161058c90888861099d565b6001600160e01b0319811663773b632160e11b141561065b5760405162461bcd60e51b81526004016102e290611c8a565b6001600160e01b0319811663a5d0728f60e01b141561068157815161058c908888610a50565b6001600160e01b03198116638a5da90f60e01b14156106a757815161058c908888610ae5565b6001600160e01b0319811663a067e24b60e01b14156106cd57815161058c9088886108bc565b6001600160e01b0319811663ad2261ff60e01b14156106f357815161058c908888610b30565b6001600160e01b03198116639f05446360e01b141561071957815161058c908888610bc5565b6001600160e01b03198116637a6f431760e11b141561074a5760405162461bcd60e51b81526004016102e290611c8a565b6001600160e01b03198116633b5490e160e01b141561077057815161058c9088886108bc565b6001600160e01b03198116633a32adab60e01b14156107a15760405162461bcd60e51b81526004016102e290611c8a565b6001600160e01b0319811663583e56d760e01b14156107c757815161058c908888610c74565b6001600160e01b031981166378c3ad1f60e01b14156107ed57815161058c908888610ce0565b6001600160e01b0319811663efd9d5c360e01b141561081357815161058c9088886108bc565b6001600160e01b031981166317fc370b60e31b141561083957815161058c908888610d6b565b60405162461bcd60e51b815260206004820152602b60248201527f4167677265676174696f6e4578656375746f723a204465782074797065206e6f60448201526a1d081cdd5c1c1bdc9d195960aa1b60648201526084016102e2565b505080806108a290611028565b915050610517565b50806040516020016104c19190611cd4565b60606000848060200190518101906108d49190611e33565b9050838382608001516108e791906117f3565b6108f19190611812565b60808201526040516104c1908290602001611edb565b606060008480602001905181019061091f9190611f92565b905083838260a0015161093291906117f3565b61093c9190611812565b60a08201526040516104c190829060200161203a565b606060008480602001905181019061096a919061210c565b905083838260a0015161097d91906117f3565b6109879190611812565b60a08201526040516104c19082906020016121a9565b60606000848060200190518101906109b5919061223d565b9050838382608001516109c891906117f3565b6109d29190611812565b60808201526040516104c190829060200160006101008201905060018060a01b038084511683528060208501511660208401528060408501511660408401528060608501511660608401526080840151608084015260a084015160a08401528060c08501511660c08401525060e0830151151560e083015292915050565b6060600084806020019051810190610a6891906122d7565b905083838260800151610a7b91906117f3565b610a859190611812565b60808201526040516104c190829060200181516001600160a01b03908116825260208084015190830152604080840151821690830152606080840151909116908201526080808301519082015260a0918201519181019190915260c00190565b6060600084806020019051810190610afd919061234b565b905083838260800151610b1091906117f3565b610b1a9190611812565b60808201526040516104c19082906020016123d5565b6060600084806020019051810190610b489190612452565b905083838260600151610b5b91906117f3565b610b659190611812565b60608201526040516104c190829060200181516001600160a01b039081168252602080840151821690830152604080840151821690830152606080840151908301526080808401519083015260a092830151169181019190915260c00190565b6060600084806020019051810190610bdd91906124cf565b905083838260800151610bf091906117f3565b610bfa9190611812565b60808201526040516104c190829060200160006101008201905060018060a01b0380845116835280602085015116602084015280604085015116604084015250606083015160608301526080830151608083015260a083015160a083015260c083015160c083015260e0830151151560e083015292915050565b6060600084806020019051810190610c8c919061254f565b905083838260200151610c9f91906117f3565b610ca99190611812565b60208281019182526040805184516001600160a01b03169281019290925291518183015290820151151560608201526080016104c1565b6060600084806020019051810190610cf891906125b5565b905083838260600151610d0b91906117f3565b610d159190611812565b60608201526040516104c190829060200181516001600160a01b03908116825260208084015182169083015260408084015182169083015260608084015190830152608092830151169181019190915260a00190565b6060600084806020019051810190610d839190612643565b905083838260800151610d9691906117f3565b610da09190611812565b60808201526040516104c190829060200181516001600160a01b039081168252602080840151821690830152604080840151821690830152606080840151909116908201526080808301519082015260a0918201519181019190915260c00190565b60405180610160016040528060006001600160a01b0316815260200160006001600160a01b031681526020016060815260200160608152602001606081526020016060815260200160006001600160a01b03168152602001600081526020016000815260200160008152602001606081525090565b600080600060408486031215610e8c57600080fd5b83356001600160401b0380821115610ea357600080fd5b818601915086601f830112610eb757600080fd5b813581811115610ec657600080fd5b876020828501011115610ed857600080fd5b6020928301989097509590910135949350505050565b60005b83811015610f09578181015183820152602001610ef1565b83811115610f18576000848401525b50505050565b60008151808452610f36816020860160208601610eee565b601f01601f19169290920160200192915050565b6020815260006102eb6020830184610f1e565b60008085851115610f6d57600080fd5b83861115610f7a57600080fd5b5050820193919092039150565b6001600160e01b03198135818116916004851015610faf5780818660040360031b1b83161692505b505092915050565b634e487b7160e01b600052601160045260246000fd5b600082821015610fdf57610fdf610fb7565b500390565b634e487b7160e01b600052604160045260246000fd5b6000821982111561100d5761100d610fb7565b500190565b634e487b7160e01b600052603260045260246000fd5b600060001982141561103c5761103c610fb7565b5060010190565b60405161016081016001600160401b038111828210171561106657611066610fe4565b60405290565b60405160a081016001600160401b038111828210171561106657611066610fe4565b604080519081016001600160401b038111828210171561106657611066610fe4565b60405160e081016001600160401b038111828210171561106657611066610fe4565b60405161012081016001600160401b038111828210171561106657611066610fe4565b60405161014081016001600160401b038111828210171561106657611066610fe4565b60405161010081016001600160401b038111828210171561106657611066610fe4565b60405160c081016001600160401b038111828210171561106657611066610fe4565b604051601f8201601f191681016001600160401b038111828210171561118557611185610fe4565b604052919050565b6001600160a01b03811681146111a257600080fd5b50565b80516111b08161118d565b919050565b600082601f8301126111c657600080fd5b81516001600160401b038111156111df576111df610fe4565b6111f2601f8201601f191660200161115d565b81815284602083860101111561120757600080fd5b611218826020830160208701610eee565b949350505050565b60006001600160401b0382111561123957611239610fe4565b5060051b60200190565b600082601f83011261125457600080fd5b8151602061126961126483611220565b61115d565b82815260059290921b8401810191818101908684111561128857600080fd5b8286015b848110156112ac57805161129f8161118d565b835291830191830161128c565b509695505050505050565b600082601f8301126112c857600080fd5b815160206112d861126483611220565b82815260059290921b840181019181810190868411156112f757600080fd5b8286015b848110156112ac57805183529183019183016112fb565b6000610160828403121561132557600080fd5b61132d611043565b9050611338826111a5565b8152611346602083016111a5565b602082015260408201516001600160401b038082111561136557600080fd5b61137185838601611243565b6040840152606084015191508082111561138a57600080fd5b611396858386016112b7565b606084015260808401519150808211156113af57600080fd5b6113bb85838601611243565b608084015260a08401519150808211156113d457600080fd5b6113e0858386016112b7565b60a08401526113f160c085016111a5565b60c084015260e0848101519084015261010080850151908401526101208085015190840152610140808501519092508181111561142d57600080fd5b611439868287016111b5565b8385015250505092915050565b60006020828403121561145857600080fd5b81516001600160401b038082111561146f57600080fd5b9083019060a0828603121561148357600080fd5b61148b61106c565b611494836111a5565b81526114a2602084016111a5565b60208201526040830151828111156114b957600080fd5b6114c5878286016111b5565b6040830152506060830151828111156114dd57600080fd5b6114e987828601611312565b60608301525060808301518281111561150157600080fd5b61150d878286016111b5565b60808301525095945050505050565b600081518084526020808501945080840160005b838110156115555781516001600160a01b031687529582019590820190600101611530565b509495945050505050565b600081518084526020808501945080840160005b8381101561155557815187529582019590820190600101611574565b80516001600160a01b03168252600061016060208301516115bc60208601826001600160a01b03169052565b5060408301518160408601526115d48286018261151c565b915050606083015184820360608601526115ee8282611560565b91505060808301518482036080860152611608828261151c565b91505060a083015184820360a08601526116228282611560565b91505060c083015161163f60c08601826001600160a01b03169052565b5060e083810151908501526101008084015190850152610120808401519085015261014080840151858303828701526116788382610f1e565b9695505050505050565b60208152600060018060a01b0380845116602084015280602085015116604084015250604083015160a060608401526116be60c0840182610f1e565b90506060840151601f19808584030160808601526116dc8383611590565b925060808601519150808584030160a0860152506116fa8282610f1e565b95945050505050565b6000806000806080858703121561171957600080fd5b84516117248161118d565b60208601519094506001600160401b038082111561174157600080fd5b61174d88838901611312565b9450604087015191508082111561176357600080fd5b61176f888389016111b5565b9350606087015191508082111561178557600080fd5b50611792878288016111b5565b91505092959194509250565b6001600160a01b03851681526080602082018190526000906117c290830186611590565b82810360408401526117d48186610f1e565b905082810360608401526117e88185610f1e565b979650505050505050565b600081600019048311821515161561180d5761180d610fb7565b500290565b60008261182f57634e487b7160e01b600052601260045260246000fd5b500490565b600082601f83011261184557600080fd5b8151602061185561126483611220565b82815260059290921b8401810191818101908684111561187457600080fd5b8286015b848110156112ac5780516001600160401b038111156118975760008081fd5b6118a58986838b01016111b5565b845250918301918301611878565b6000602082840312156118c557600080fd5b81516001600160401b03808211156118dc57600080fd5b9083019060a082860312156118f057600080fd5b6118f861106c565b82518281111561190757600080fd5b61191387828601611243565b82525060208301518281111561192857600080fd5b611934878286016112b7565b60208301525060408301518281111561194c57600080fd5b61195887828601611834565b6040830152506060830151606082015260808301518281111561150157600080fd5b60006020808352835160a08285015261199660c085018261151c565b905081850151601f19808684030160408701526119b38383611560565b60408801518782038301606089015280518083529194508501925084840190600581901b8501860160005b82811015611a0a57848783030184526119f8828751610f1e565b958801959388019391506001016119de565b5060608a015160808a015260808a01519650838982030160a08a0152611a308188610f1e565b9a9950505050505050505050565b600082601f830112611a4f57600080fd5b8151611a5d61126482611220565b808282526020820191508560208460051b8701011115611a7c57600080fd5b602085015b60208460051b870101811015611ba95780516001600160401b03811115611aa757600080fd5b8601603f81018813611ab857600080fd5b6020810151611ac961126482611220565b808282526020820191508a60408460051b8601011115611ae857600080fd5b604084015b60408460051b860101811015611b935780516001600160401b03811115611b1357600080fd5b60408682018e03603f19011215611b2957600080fd5b611b3161108e565b604082880101516001600160401b03811115611b4c57600080fd5b611b5d8f604083868c0101016111b5565b82525090860160600151906001600160e01b031982168214611b7e57600080fd5b60208181019290925284529283019201611aed565b5086525050602093840193919091019050611a81565b5095945050505050565b600060208284031215611bc557600080fd5b81516001600160401b0380821115611bdc57600080fd5b9083019060e08286031215611bf057600080fd5b611bf86110b0565b825182811115611c0757600080fd5b611c1387828601611a3e565b825250611c22602084016111a5565b6020820152611c33604084016111a5565b604082015260608301516060820152611c4e608084016111a5565b608082015260a083015160a082015260c083015182811115611c6f57600080fd5b611c7b878286016111b5565b60c08301525095945050505050565b6020808252602a908201527f496e7075745363616c696e6748656c7065723a2043616e206e6f74207363616c6040820152690652052465120737761760b41b606082015260800190565b6020808252825160e0838301528051610100840181905260009291600582811b860161012090810193928501929087019186805b83811015611d9c5789870361011f1901855285518051808952908901908989019080861b8a018b01855b82811015611d8657601f198c8303018452845160408151818552611d5882860182610f1e565b91505063ffffffff60e01b8f830151168f85015280935050508c850194508c84019350600181019050611d32565b5099505050958801955093870193600101611d08565b50505050928601516001600160a01b03811660408701529250611dbc9050565b60408501516001600160a01b038116606086015291506060850151608085015260808501519150611df860a08501836001600160a01b03169052565b60a085015160c085015260c08501519150601f198482030160e08501526116fa8183610f1e565b805163ffffffff811681146111b057600080fd5b60006101208284031215611e4657600080fd5b611e4e6110d2565b611e57836111a5565b8152611e65602084016111a5565b6020820152611e76604084016111a5565b6040820152611e87606084016111a5565b60608201526080830151608082015260a083015160a0820152611eac60c08401611e1f565b60c0820152611ebd60e08401611e1f565b60e0820152610100611ed0818501611e1f565b908201529392505050565b81516001600160a01b03908116825260208084015182169083015260408084015182169083015260608084015191821690830152610120820190506080830151608083015260a083015160a083015260c0830151611f4160c084018263ffffffff169052565b5060e0830151611f5960e084018263ffffffff169052565b506101008381015163ffffffff811684830152610faf565b805160ff811681146111b057600080fd5b805180151581146111b057600080fd5b60006101408284031215611fa557600080fd5b611fad6110f5565b611fb6836111a5565b8152611fc4602084016111a5565b6020820152611fd5604084016111a5565b6040820152611fe660608401611f71565b6060820152611ff760808401611f71565b608082015260a083015160a082015260c083015160c082015260e083015160e08201526101006120288185016111a5565b90820152610120611ed0848201611f82565b81516001600160a01b031681526101408101602083015161206660208401826001600160a01b03169052565b50604083015161208160408401826001600160a01b03169052565b506060830151612096606084018260ff169052565b5060808301516120ab608084018260ff169052565b5060a083015160a083015260c083015160c083015260e083015160e0830152610100808401516120e5828501826001600160a01b03169052565b50506101208381015180151584830152610faf565b8051600f81900b81146111b057600080fd5b6000610120828403121561211f57600080fd5b6121276110d2565b612130836111a5565b815261213e602084016111a5565b602082015261214f604084016111a5565b6040820152612160606084016120fa565b6060820152612171608084016120fa565b608082015260a083015160a082015260c083015160c082015261219660e08401611f82565b60e0820152610100611ed0818501611f82565b81516001600160a01b039081168252602080840151821690830152604080840151918216908301526101208201905060608301516121ec6060840182600f0b9052565b5060808301516122016080840182600f0b9052565b5060a083015160a083015260c083015160c083015260e083015161222960e084018215159052565b506101008381015180151584830152610faf565b6000610100828403121561225057600080fd5b612258611118565b82516122638161118d565b815260208301516122738161118d565b6020820152612284604084016111a5565b6040820152612295606084016111a5565b60608201526080830151608082015260a083015160a08201526122ba60c084016111a5565b60c08201526122cb60e08401611f82565b60e08201529392505050565b600060c082840312156122e957600080fd5b6122f161113b565b82516122fc8161118d565b81526020838101519082015260408301516123168161118d565b604082015260608301516123298161118d565b60608201526080838101519082015260a0928301519281019290925250919050565b6000610120828403121561235e57600080fd5b6123666110d2565b61236f836111a5565b815261237d602084016111a5565b602082015261238e604084016111a5565b604082015261239f606084016111a5565b60608201526080830151608082015260a083015160a08201526123c460c084016111a5565b60c082015261219660e08401611f82565b81516001600160a01b03908116825260208084015182169083015260408084015182169083015260608084015191821690830152610120820190506080830151608083015260a083015160a083015260c083015161243e60c08401826001600160a01b03169052565b5060e083015161222960e084018215159052565b600060c0828403121561246457600080fd5b61246c61113b565b82516124778161118d565b815260208301516124878161118d565b6020820152604083015161249a8161118d565b80604083015250606083015160608201526080830151608082015260a08301516124c38161118d565b60a08201529392505050565b600061010082840312156124e257600080fd5b6124ea611118565b82516124f58161118d565b815260208301516125058161118d565b6020820152612516604084016111a5565b6040820152606083015160608201526080830151608082015260a083015160a082015260c083015160c08201526122cb60e08401611f82565b60006060828403121561256157600080fd5b604051606081018181106001600160401b038211171561258357612583610fe4565b60405282516125918161118d565b8152602083810151908201526125a960408401611f82565b60408201529392505050565b600060a082840312156125c757600080fd5b60405160a081018181106001600160401b03821117156125e9576125e9610fe4565b60405282516125f78161118d565b815260208301516126078161118d565b6020820152604083015161261a8161118d565b60408201526060838101519082015260808301516126378161118d565b60808201529392505050565b600060c0828403121561265557600080fd5b61265d61113b565b82516126688161118d565b815260208301516126788161118d565b602082015260408301516123168161118d56fea264697066735822122028fcf96697b88a4da48fada48844a028a0d237dc7abfc57b5db1c8ac19783de264736f6c63430008090033",
    "linkReferences": {}
  },
  "methodIdentifiers": {
    "getScaledInputData(bytes,uint256)": "e4da6f2e"
  },
  "id": 1
}